:100000000C94AA000C94B9010C94BF000C94BF008E
:100010000C94BF000C94BF000C94BF000C94BF0064
:100020000C94BF000C94BF000C94BF000C94BF0054
:100030000C94BF000C94BF000C94BF000C94BF0044
:100040000C94BF000C94BF000C94BF000C94BF0034
:100050000C94BF00220226022A022E02320236022D
:100060003A023E02520256025A025E0262026602E0
:100070006A026E02820286028A028E029202960250
:100080009A029E02B102B502B902BD02C102C502C6
:10009000C902CD02DE02E302E802ED02F202F7023B
:1000A000FC02010315031A031F03240329032E0373
:1000B000330338034C03510356035B0360036503AA
:1000C0006A036F03820387038C03910396039B03E8
:1000D000A003A5034A044E04520456045A045E04C5
:1000E000620466047A047E04820486048A048E0410
:1000F00092049604AA04AE04B204B604BA04BE0480
:10010000C204C604D904DD04E104E504E904ED04F5
:10011000F104F50406050B05100515051A051F0564
:10012000240529053D05420547054C0551055605A1
:100130005B056005740579057E05830588058D05D9
:1001400092059705AA05AF05B405B905BE05C30517
:10015000C805CD0511241FBECFE5D8E0DEBFCDBF59
:1001600010E0A0E6B0E0EEE4F0E102C005900D92F0
:10017000A036B107D9F70E94B0010C9425080C9461
:10018000000081E00E9410060E9472010E94480156
:100190000895CF93DF930E9479010E94C707C0E0C2
:1001A000D0E003C00E949F012196C530D105D4F351
:1001B0000E948C010E94C707C0E0D0E003C00E94EB
:1001C0009F012196C530D105D4F3DF91CF910895D9
:1001D0000E94C9000895CF93DF930E94C707C0E033
:1001E000D0E003C00E949F012196C530D105D4F311
:1001F0000E948C010E94C707C0E0D0E003C00E94AB
:100200009F012196C530D105D4F30E94C900DF912A
:10021000CF910895CF93DF93C0E0D0E003C00E9458
:100220009F012196C530D105D4F30E948C010E9414
:10023000C707C0E0D0E003C00E949F012196C530EF
:10024000D105D4F30E94C900DF91CF910895CF93D7
:10025000DF93C0E0D0E003C00E949F012196C5302B
:10026000D105D4F30E948C010E94C707C0E0D0E002
:1002700003C00E949F012196C530D105D4F30E948E
:10028000C900DF91CF91089560E00E943504089580
:100290008AE10E944401089561E00E94E205089508
:1002A00061E00E94E205089561E00E940D02089558
:1002B00060E00E940D020895CF93DF93D82FC62FE0
:1002C0000E9454018C2F0E9454010E94EC078D2F34
:1002D0000E9458018C2F0E9458010E94EC07DF9168
:1002E000CF91089580E00E944C0181E00E9450016E
:1002F000089582E00E94540181E00E94580180E04C
:100300000E94580188E00E94540189E00E9458012F
:100310008AE00E94580108958AE00E94540189E011
:100320000E94580188E00E94580180E00E94540118
:1003300081E00E94580182E00E945801089582E005
:100340000E94580180E00E9458018AE00E945801F2
:1003500088E00E94580169E081E00E945C010895F4
:1003600061E082E00E94E2050E94C1000E94E80074
:10037000FDCF1F920F920FB60F9211242F933F9330
:100380004F935F936F937F938F939F93AF93BF939D
:10039000EF93FF93CF93DF9300D01F92CDB7DEB7DB
:1003A0000E942E06BE016F5F7F4F80E00E94BA035D
:1003B000BE016E5F7F4F81E00E94BA03BE016D5F98
:1003C0007F4F82E00E94BA038981882319F00E943E
:1003D00027010AC08A81882319F00E940A0104C0FB
:1003E0008B8181110E94EB0081E00E9410060F902A
:1003F0000F900F90DF91CF91FF91EF91BF91AF914F
:100400009F918F917F916F915F914F913F912F912C
:100410000F900FBE0F901F9018950F931F9381326E
:1004200008F098C1613009F0BBC0883058F5082F3A
:1004300010E00830110508F0B3C0F801E65DFF4F89
:100440000C941F089BB391609BBBAAC09BB39260A6
:100450009BBBA6C09BB394609BBBA2C09BB39860A0
:100460009BBB9EC09BB390619BBB9AC09BB39062A9
:100470009BBB96C09BB390649BBB92C09BB39068A0
:100480009BBB8EC098EF980F983060F5082F10E056
:10049000F8013897E830F10508F082C0EE5CFF4FB4
:1004A0000C941F0898B3916098BB7AC098B392607F
:1004B00098BB76C098B3946098BB72C098B39860AC
:1004C00098BB6EC098B3906198BB6AC098B39062B5
:1004D00098BB66C098B3906498BB62C098B39068AC
:1004E00098BB5EC090EF980F983060F5082F10E031
:1004F000F8017097E830F10508F052C0E65CFF4F54
:100500000C941F0895B3916095BB4AC095B3926057
:1005100095BB46C095B3946095BB42C095B39860B7
:1005200095BB3EC095B3906195BB3AC095B39062C0
:1005300095BB36C095B3906495BB32C095B39068B7
:1005400095BB2EC098EE980F983050F5082F10E00C
:10055000F8017897E830F10518F5EE5BFF4F0C9441
:100560001F0892B3916092BB1BC092B3926092BB82
:1005700017C092B3946092BB13C092B3986092BBC1
:100580000FC092B3906192BB0BC092B3906292BBCA
:1005900007C092B3906492BB03C092B3906892BBC1
:1005A0006111DAC0883090F590E08830910508F04C
:1005B000D5C0FC01E65BFF4F0C941F088BB38E7F08
:1005C0008BBB80E0D4C08BB38D7F8BBB80E0CFC072
:1005D0008BB38B7F8BBB80E0CAC08BB3877F8BBB19
:1005E00080E0C5C08BB38F7E8BBB80E0C0C08BB377
:1005F0008F7D8BBB80E0BBC08BB38F7B8BBB80E0E0
:10060000B6C08BB38F778BBB80E0B1C098EF980FEB
:10061000983098F590E0FC013897E830F10508F043
:100620009FC0EE5AFF4F0C941F0888B38E7F88BB83
:1006300080E09DC088B38D7F88BB80E098C088B380
:100640008B7F88BB80E093C088B3877F88BB80E0C6
:100650008EC088B38F7E88BB80E089C088B38F7DD1
:1006600088BB80E084C088B38F7B88BB80E07FC07C
:1006700088B38F7788BB80E07AC090EF980F98306E
:1006800098F590E0FC017097E830F10508F06AC039
:10069000E65AFF4F0C941F0885B38E7F85BB80E020
:1006A00066C085B38D7F85BB80E061C085B38B7FDD
:1006B00085BB80E05CC085B3877F85BB80E057C089
:1006C00085B38F7E85BB80E052C085B38F7D85BBAF
:1006D00080E04DC085B38F7B85BB80E048C085B38B
:1006E0008F7785BB80E043C098EE980F9830E0F597
:1006F00090E0FC017897E830F105C0F5EE59FF4F26
:100700000C941F0882B38E7F82BB80E030C082B31E
:100710008D7F82BB80E02BC082B38B7F82BB80E069
:1007200026C082B3877F82BB80E021C082B38F7EE8
:1007300082BB80E01CC082B38F7D82BB80E017C08B
:1007400082B38F7B82BB80E012C082B38F7782BB83
:1007500080E00DC081E00BC080E009C080E007C0F0
:1007600080E005C080E003C080E001C080E01F9110
:100770000F9108959FEF980F9730C0F499B321E03F
:1007800030E0A901082E02C0440F551F0A94E2F779
:10079000292F30E024233523A90102C05595479520
:1007A0008A95E2F7FB01408380E0089598EF980F67
:1007B0009830D8F4E6B348E050E0481B510981E096
:1007C00090E09C01042E02C0220F331F0A94E2F72E
:1007D0008E2F90E08223932302C0959587954A95AA
:1007E000E2F7FB01808380E0089590EF980F983046
:1007F000D8F4E3B340E150E0481B510981E090E0B8
:100800009C01042E02C0220F331F0A94E2F78E2FA0
:1008100090E08223932302C0959587954A95E2F74D
:10082000FB01808380E0089598EE980F9830D8F40B
:10083000E0B348E150E0481B510981E090E09C01A1
:10084000042E02C0220F331F0A94E2F78E2F90E08D
:100850008223932302C0959587954A95E2F7FB0181
:10086000808380E0089581E008950F931F93813283
:1008700008F098C1613009F0BBC0883058F5082FE6
:1008800010E00830110508F0B3C0F801E659FF4F39
:100890000C941F089AB391609ABBAAC09AB3926055
:1008A0009ABBA6C09AB394609ABBA2C09AB3986050
:1008B0009ABB9EC09AB390619ABB9AC09AB3906259
:1008C0009ABB96C09AB390649ABB92C09AB3906850
:1008D0009ABB8EC098EF980F983060F5082F10E003
:1008E000F8013897E830F10508F082C0EE58FF4F64
:1008F0000C941F0897B3916097BB7AC097B392602E
:1009000097BB76C097B3946097BB72C097B398605B
:1009100097BB6EC097B3906197BB6AC097B3906264
:1009200097BB66C097B3906497BB62C097B390685B
:1009300097BB5EC090EF980F983060F5082F10E0DD
:10094000F8017097E830F10508F052C0E658FF4F03
:100950000C941F0894B3916094BB4AC094B3926006
:1009600094BB46C094B3946094BB42C094B3986067
:1009700094BB3EC094B3906194BB3AC094B3906270
:1009800094BB36C094B3906494BB32C094B3906867
:1009900094BB2EC098EE980F983050F5082F10E0B9
:1009A000F8017897E830F10518F5EE57FF4F0C94F1
:1009B0001F0891B3916091BB1BC091B3926091BB32
:1009C00017C091B3946091BB13C091B3986091BB71
:1009D0000FC091B3906191BB0BC091B3906291BB7A
:1009E00007C091B3906491BB03C091B3906891BB71
:1009F0006111DAC0883090F590E08830910508F0F8
:100A0000D5C0FC01E657FF4F0C941F088AB38E7FB8
:100A10008ABB80E0D4C08AB38D7F8ABB80E0CFC020
:100A20008AB38B7F8ABB80E0CAC08AB3877F8ABBC8
:100A300080E0C5C08AB38F7E8ABB80E0C0C08AB325
:100A40008F7D8ABB80E0BBC08AB38F7B8ABB80E08E
:100A5000B6C08AB38F778ABB80E0B1C098EF980F99
:100A6000983098F590E0FC013897E830F10508F0EF
:100A70009FC0EE56FF4F0C941F0887B38E7F87BB35
:100A800080E09DC087B38D7F87BB80E098C087B32F
:100A90008B7F87BB80E093C087B3877F87BB80E075
:100AA0008EC087B38F7E87BB80E089C087B38F7D80
:100AB00087BB80E084C087B38F7B87BB80E07FC02B
:100AC00087B38F7787BB80E07AC090EF980F98301C
:100AD00098F590E0FC017097E830F10508F06AC0E5
:100AE000E656FF4F0C941F0884B38E7F84BB80E0D2
:100AF00066C084B38D7F84BB80E061C084B38B7F8C
:100B000084BB80E05CC084B3877F84BB80E057C037
:100B100084B38F7E84BB80E052C084B38F7D84BB5E
:100B200080E04DC084B38F7B84BB80E048C084B339
:100B30008F7784BB80E043C098EE980F9830E0F543
:100B400090E0FC017897E830F105C0F5EE55FF4FD5
:100B50000C941F0881B38E7F81BB80E030C081B3CD
:100B60008D7F81BB80E02BC081B38B7F81BB80E018
:100B700026C081B3877F81BB80E021C081B38F7E97
:100B800081BB80E01CC081B38F7D81BB80E017C03A
:100B900081B38F7B81BB80E012C081B38F7781BB33
:100BA00080E00DC081E00BC080E009C080E007C09C
:100BB00080E005C080E003C080E001C080E01F91BC
:100BC0000F9108956130A1F4813049F028F082300E
:100BD00049F0833051F01DC08FEF8ABB1AC08FEFF0
:100BE00087BB17C08FEF84BB14C08FEF81BB11C0D0
:100BF00061110FC0813041F028F0823039F083302C
:100C000039F007C01ABA05C017BA03C014BA01C038
:100C100011BA80E008958FB780688FBF80E0089593
:100C2000CF93C82F0E940B068BB780648BBFC11176
:100C300008C085B7826085BF85B78E7F85BF80E09D
:100C40000BC0C13041F485B7816085BF85B7826034
:100C500085BF80E001C081E0CF910895F89480E0E5
:100C60000895FC01828181117FC0908191111BC088
:100C70008181813019F483BF892F0895823019F45E
:100C800083BF892F0895833019F483BF892F089576
:100C9000843019F483BF892F0895853009F0F7C097
:100CA00083BF892F08959130F1F59181913051F4EE
:100CB0009FB59C7F9FBD9EB5917E9EBD9EB5916068
:100CC0009EBD0895923051F49FB59C7F9FBD9EB507
:100CD000927E9EBD9EB592609EBD0895933051F464
:100CE0009FB59C7F9FBD9EB5937E9EBD9EB5936034
:100CF0009EBD0895943051F49FB59C7F9FBD9EB5D5
:100D0000947E9EBD9EB594609EBD0895953009F079
:100D1000C7C09FB59C7F9FBD9EB5957E9EBD9EB56D
:100D200095609EBD0895923009F0BAC091819130CE
:100D300011F495BD0895923011F495BD0895933046
:100D400011F495BD0895943011F495BD0895953032
:100D500011F495BD0895963011F495BD089597301E
:100D600009F09EC095BD0895813009F092C0808140
:100D700081111BC09181913019F499E093BF0895BE
:100D8000923019F49AE093BF0895933019F49BE0E0
:100D900093BF0895943019F49CE093BF0895953063
:100DA00009F07EC09DE093BF0895813009F042C0F4
:100DB0008181813059F48FB58C7F8FBD8EB5897E4E
:100DC0008EBD8EB589608EBD80E00895823059F465
:100DD0008FB58C7F8FBD8EB58A7E8EBD8EB58A60B5
:100DE0008EBD80E00895833059F48FB58C7F8FBD20
:100DF0008EB58B7E8EBD8EB58B608EBD80E00895E6
:100E0000843059F48FB58C7F8FBD8EB58C7E8EBDAE
:100E10008EB58C608EBD80E008958530E1F58FB58C
:100E20008C7F8FBD8EB58D7E8EBD8EB58D608EBD57
:100E300080E00895823089F58181813021F489E054
:100E400085BD80E00895823021F48AE085BD80E090
:100E50000895833021F48BE085BD80E008958430CF
:100E600021F48CE085BD80E00895853021F48DE08B
:100E700085BD80E00895863021F48EE085BD80E058
:100E80000895873061F48FE085BD80E00895892F53
:100E9000089581E0089580E0089580E0089580E05D
:100EA0000895FC01828181111AC09081911104C0C2
:100EB000619562BF892F0895913061F46F3F71058C
:100EC00031F028F0609570957DBD6CBD08956195F9
:100ED0006CBD0895923041F5619564BD08958130EF
:100EE000F1F48081811103C012BE6CBF089581307E
:100EF00081F41DBC1CBC6F3F710529F020F07BBD47
:100F00006ABD80E008956F3F710558F06ABD80E0CA
:100F10000895823041F414BC63BD80E0089581E0FF
:100F2000089580E0089580E00895811105C083B799
:100F3000887F83BF80E00895813029F48EB5887F53
:100F40008EBD80E00895823029F485B5887F85BD07
:100F500080E0089581E00895811106C012BE88B72F
:100F6000816088BF80E00895813039F41DBC1CBCCD
:100F700088B7846088BF80E00895823031F414BC63
:100F800088B7806488BF80E0089581E00895CF939A
:100F9000DF9300D01F92CDB7DEB781E0898385E073
:100FA0008A831B82CE0101960E94310666E978E9A8
:100FB000CE0101960E94510708B602FEFDCF81E0E6
:100FC0000E94AC0781E00E94950780E00F900F908F
:100FD0000F90DF91CF9108950F931F93CF93DF93DD
:100FE00000D01F92CDB7DEB7198285E08A831B82BD
:100FF00000E010E018C0CE0101960E94310661E0C9
:1010000070E0CE0101960E94510708B600FEFDCFA8
:1010100088B7816088BF0F5F1F4F80E00E94AC07D8
:1010200080E00E9495070F3011052CF380E00F90AF
:101030000F900F90DF91CF911F910F910895EE0FB8
:0E104000FF1F0590F491E02D0994F894FFCF66
:00000001FF
