S01700004763634170706C69636174696F6E312E737265635B
S11300000C949A000C9475010C94AF000C94AF00FE
S11300100C94AF000C94AF000C94AF000C94AF00A0
S11300200C94AF000C94AF000C94AF000C94AF0090
S11300300C94AF000C94AF000C94AF000C94AF0080
S11300400C94AF000C94AF000C94AF000C94AF0070
S11300500C94AF00DE01E001E201E401E601E801F5
S1130060EA01FD01FF010102030205020702090280
S11300701C021E02200222022402260228023A0244
S11300803C023E02400242024402460258025A0224
S11300905C025E02600262026402770279027B0201
S11300A07D027F0281028302960298029A029C02D8
S11300B09E02A002A202B302B502B702B902BB02B9
S11300C0BD02BF02210323032503270329032B03B6
S11300D02D03400342034403460348034A034C03ED
S11300E05F03610363036503670369036B037D03B4
S11300F07F03810383038503870389039B039D0394
S11301009F03A103A303A503A703BA03BC03BE0370
S1130110C003C203C403C603D903DB03DD03DF0347
S1130120E103E303E503F603F803FA03FC03FE0328
S11301300004020411241FBECFE5D8E0DEBFCDBF0A
S113014010E0A0E6B0E0E8E0FCE002C005900D920B
S1130150A436B107D9F70E946C010C9402060C94E2
S1130160000081E00E9434040E9432010C941101C9
S11301700E9438010E94A1050E945C010E945C015A
S11301800E945C010E945C010E945C010E944A0181
S11301900E94A1050E945C010E945C010E945C0116
S11301A00E945C010C945C010C94B8000E94A105AF
S11301B00E945C010E945C010E945C010E945C013F
S11301C00E945C010E944A010E94A1050E945C01F8
S11301D00E945C010E945C010E945C010E945C011F
S11301E00C94B8000E945C010E945C010E945C01B6
S11301F00E945C010E945C010E944A010E94A105C8
S11302000E945C010E945C010E945C010E945C01EE
S11302100E945C010C94B8000C94F20060E00C9411
S11302200C038AE10C940E0161E00C94080461E073
S11302300C94C90160E00C94C901CF93DF93D82FCB
S1130240C62F0E9417018C2F0E9417010E94CC0513
S11302508D2F0E941A018C2F0E941A01DF91CF91D9
S11302600C94CC0580E00E94140181E00C941401EC
S113027082E00E94170181E00E941A0180E00E943E
S11302801A0188E00E94170189E00E941A018AE09D
S11302900C941A018AE00E94170189E00E941A0155
S11302A088E00E941A0180E00E94170181E00E9408
S11302B01A0182E00C941A0182E00E941A0180E083
S11302C00E941A018AE00E941A0188E00E941A0121
S11302D069E081E00C941D0161E082E00E94080461
S11302E00E94B1000E94D400FDCF1F920F920FB65E
S11302F00F9211242F933F934F935F936F937F93A8
S11303008F939F93AF93BF93EF93FF93CF93DF9319
S113031000D01F92CDB7DEB70E945004BE016D5FBE
S11303207F4F80E00E94C502BE016E5F7F4F81E077
S11303300E94C502BE016F5F7F4F82E00E94C5022A
S11303408B81882319F00E94F2000AC08A818823D5
S113035019F00E940C0104C0898181110E94D60009
S113036081E00E9434040F900F900F90DF91CF91A1
S1130370FF91EF91BF91AF919F918F917F916F9179
S11303805F914F913F912F910F900FBE0F901F904F
S11303901895E82F813208F0F4C0613009F078C074
S11303A08830D0F490E0FC013197E730F10520F477
S11303B0E65DFF4F0C94FC05D89AE5C0D99AE3C0DA
S11303C0DA9AE1C0DB9ADFC0DC9ADDC0DD9ADBC0DB
S11303D0DE9AD9C0DF9AD7C088EF8E0F8830D8F460
S11303E08E2F90E0FC013997E730F10520F4EF5CA3
S11303F0FF4F0C94FC05C09AC6C0C19AC4C0C29AEF
S1130400C2C0C39AC0C0C49ABEC0C59ABCC0C69A72
S1130410BAC0C79AB8C080EF8E0F8830D8F48E2F38
S113042090E0FC017197E730F10520F4E85CFF4FA0
S11304300C94FC05A89AA7C0A99AA5C0AA9AA3C01F
S1130440AB9AA1C0AC9A9FC0AD9A9DC0AE9A9BC016
S1130450AF9A99C0E03209F496C08E2F90E0FC0167
S11304607997E730F10520F4E15CFF4F0C94FC052B
S1130470909A89C0919A87C0929A85C0939A83C0B2
S1130480949A81C0959A7FC0969A7DC0979A7BC0B2
S1130490611179C08830D0F490E0FC013197E730E5
S11304A0F10520F4EA5BFF4F0C94FC05D8986BC06F
S11304B0D99869C0DA9867C0DB9865C0DC9863C0D6
S11304C0DD9861C0DE985FC0DF985DC088EF8E0F55
S11304D08830D8F48E2F90E0FC013997E730F1058D
S11304E020F4E35BFF4F0C94FC05C0984CC0C1980A
S11304F04AC0C29848C0C39846C0C49844C0C5986E
S113050042C0C69840C0C7983EC080EF8E0F883066
S1130510D8F48E2F90E0FC017197E730F10520F4B8
S1130520EC5AFF4F0C94FC05A8982DC0A9982BC039
S1130530AA9829C0AB9827C0AC9825C0AD9823C011
S1130540AE9821C0AF981FC0E032E9F08E2F90E042
S1130550FC017997E730F10520F4E55AFF4F0C943C
S1130560FC05909810C091980EC092980CC0939876
S11305700AC0949808C0959806C0969804C09798A5
S113058002C081E0089580E00895FB019FEF980F79
S11305909730A0F449B321E030E0082E02C0220FC6
S11305A0331F0A94E2F750E024233523A90102C043
S11305B0559547958A95E2F7CA0121C098EF980F9F
S11305C0983020F426B348E050E007C090EF980F2D
S11305D09830C0F423B340E150E0481B510981E056
S11305E090E0042E02C0880F991F0A94E2F730E0CD
S11305F08223932302C0959587954A95E2F78083D9
S113060080E0089598EE980F983020F420B348E1E4
S113061050E0E3CF81E00895E82F813208F0F4C080
S1130620613009F078C08830D0F490E0FC01319753
S1130630E730F10520F4EE59FF4F0C94FC05D09AF5
S1130640E5C0D19AE3C0D29AE1C0D39ADFC0D49A6C
S1130650DDC0D59ADBC0D69AD9C0D79AD7C088EF67
S11306608E0F8830D8F48E2F90E0FC013997E73054
S1130670F10520F4E759FF4F0C94FC05B89AC6C065
S1130680B99AC4C0BA9AC2C0BB9AC0C0BC9ABEC010
S1130690BD9ABCC0BE9ABAC0BF9AB8C080EF8E0FD4
S11306A08830D8F48E2F90E0FC017197E730F10583
S11306B020F4E059FF4F0C94FC05A09AA7C0A19A1E
S11306C0A5C0A29AA3C0A39AA1C0A49A9FC0A59AA8
S11306D09DC0A69A9BC0A79A99C0E03209F496C01F
S11306E08E2F90E0FC017997E730F10520F4E9586A
S11306F0FF4F0C94FC05889A89C0899A87C08A9A0E
S113070085C08B9A83C08C9A81C08D9A7FC08E9A43
S11307107DC08F9A7BC0611179C08830D0F490E09D
S1130720FC013197E730F10520F4E258FF4F0C94B7
S1130730FC05D0986BC0D19869C0D29867C0D39893
S113074065C0D49863C0D59861C0D6985FC0D79867
S11307505DC088EF8E0F8830D8F48E2F90E0FC01B6
S11307603997E730F10520F4EB57FF4F0C94FC0563
S1130770B8984CC0B9984AC0BA9848C0BB9846C00B
S1130780BC9844C0BD9842C0BE9840C0BF983EC00B
S113079080EF8E0F8830D8F48E2F90E0FC01719793
S11307A0E730F10520F4E457FF4F0C94FC05A098C2
S11307B02DC0A1982BC0A29829C0A39827C0A498A3
S11307C025C0A59823C0A69821C0A7981FC0E032D1
S11307D0E9F08E2F90E0FC017997E730F10520F4E1
S11307E0ED56FF4F0C94FC05889810C089980EC0F4
S11307F08A980CC08B980AC08C9808C08D9806C043
S11308008E9804C08F9802C081E0089580E0089516
S1130810613099F4813059F038F0823059F08330E6
S1130820E1F48FEF81BB19C08FEF8ABB16C08FEF45
S113083087BB13C08FEF84BB10C061110EC0813021
S113084049F030F0823041F0833039F411BA05C0F8
S11308501ABA03C017BA01C014BA80E008958FB75A
S113086080688FBF80E00895CF93C82F0E942F0423
S11308708BB780648BBFC11106C085B7826085BF0A
S113088085B78E7F07C0C13041F485B7816085BFCD
S113089085B7826085BF80E001C081E0CF91089573
S11308A0F89480E00895FC018281811165C09081F3
S11308B0911111C09181913009F474C0923009F4FE
S11308C071C0933009F46EC0943009F46BC0953054
S11308D009F0CDC067C09130D1F59181913049F4D0
S11308E09FB59C7F9FBD9EB5917E9EBD9EB5916038
S11308F020C0923049F49FB59C7F9FBD9EB5927EE7
S11309009EBD9EB5926015C0933049F49FB59C7FFF
S11309109FBD9EB5937E9EBD9EB593600AC09430E4
S113092051F49FB59C7F9FBD9EB5947E9EBD9EB5A0
S113093094609EBD0895953009F099C09FB59C7F41
S11309409FBD9EB5957E9EBD9EB59560F2CF9230BB
S113095009F08DC09181913069F0923059F0933053
S113096049F0943039F0953029F0963019F09730E9
S113097009F07DC095BD0895813009F075C080816E
S1130980811117C09181913011F499E00BC092301C
S113099011F49AE007C0933011F49BE003C0943043
S11309A019F49CE093BF0895953009F060C09DE070
S11309B0F9CF8130C9F58181813049F48FB58C7FBD
S11309C08FBD8EB5897E8EBD8EB589600AC082309A
S11309D051F48FB58C7F8FBD8EB58A7E8EBD8EB55A
S11309E08A608EBD43C0833049F48FB58C7F8FBD40
S11309F08EB58B7E8EBD8EB58B60F3CF843049F47B
S1130A008FB58C7F8FBD8EB58C7E8EBD8EB58C6080
S1130A10E8CF853059F58FB58C7F8FBD8EB58D7E2F
S1130A208EBD8EB58D60DDCF823001F58181813040
S1130A3011F489E017C0823011F48AE013C08330C6
S1130A4011F48BE00FC0843011F48CE00BC08530BE
S1130A5011F48DE007C0863011F48EE003C08730B6
S1130A6029F48FE085BD02C081E0089580E00895F7
S1130A70FC018281811118C09081911103C061959C
S1130A8062BF0895913059F46F3F710529F020F049
S1130A90609570957DBD01C061956CBD08959230DF
S1130AA001F5619564BD08958130E9F48081811177
S1130AB003C012BE6CBF0895813079F41DBC1CBC08
S1130AC06F3F710521F018F07BBD6ABD0AC06F3F0E
S1130AD0710539F48FEF8ABD04C0823011F414BC5F
S1130AE063BD80E0089581E00895811104C083B757
S1130AF0887F83BF05C0813029F48EB5887F8EBD81
S1130B0080E00895823021F485B5887F85BDF8CFD3
S1130B1081E00895811104C012BE88B7816006C0C7
S1130B20813039F41DBC1CBC88B7846088BF80E068
S1130B300895823021F414BC88B78064F7CF81E033
S1130B400895CF93DF9300D01F92CDB7DEB7809185
S1130B50600090916100A091620089839A83AB83C5
S1130B60CE0101960E94530466E978E9CE0101960C
S1130B700E94380508B602FEFDCF1DBC1CBC88B718
S1130B80846088BF8EB5887F8EBD80E00F900F9003
S1130B900F90DF91CF9108950F931F93CF93DF931D
S1130BA000D01F92CDB7DEB7198285E08A831B82FD
S1130BB00FE010E0CE0101960E94530461E070E062
S1130BC0CE0101960E94380508B600FEFDCF88B715
S1130BD0816088BF80E00E948A0580E00E947505DC
S1130BE00150110939F780E00F900F900F90DF91B9
S1130BF0CF911F910F910895EE0FFF1F0590F4916F
S10B0C00E02D0994F894FFCFE4
S1070C0801050000DE
S9030000FC
